:100000000C9448040C9480040C9480040C94800498
:100010000C9480040C9480040C9480040C94800450
:100020000C9480040C9480040C94E1280C94B52961
:100030000C942F230C9480040C9480040C94800462
:100040000C9480040C9480040C9480040C94800420
:100050000C9480040C94B6230C9480040C948004BB
:100060000C9480040C9480040C9480040C94800400
:100070000C9480040C9480040C9480040C948004F0
:100080000C9480040C9480040C9480040C948004E0
:100090000C9480040C9480040C9480040C948004D0
:1000A0000C9480040C9480040C9480040A00253085
:1000B000313662003A200025303258000A722F6330
:1000C00020303132333435363738394142434445B4
:1000D000460A006D637032333031372064656174D5
:1000E0007461636865642121210A006D6370323395
:1000F0003031372061747461636865642121210A9D
:100100000035001E001F0020002100220050004F7B
:1001100000230024002500260027002D002B0014BA
:10012000001A000800150017002F0030001C0018EE
:10013000000C0012001300310029000438162407B7
:100140002109220A00000000000B000D320E310FC1
:100150003433383400E1001D211B0006001900056E
:100160000037022E0011001000360037003800E57D
:1001700000BC00AE00BB00E200290000000000004F
:100180000000004C005000510052004F0000002CB5
:10019000412B44E000AE00BC00BB00AA00A900E671
:1001A00000E4002A432842000000003A003B003CE3
:1001B000003D003E00010001003F004000410042C0
:1001C00000430044000100000000000000000000A7
:1001D00000BD0039004B004A0052004D00A9004507
:1001E000000100E300E200E000E100000000000088
:1001F000004E00500051004F00AA004700010000CF
:10020000000000000000000000BE000100490000E6
:100210000000000000A8000100037C0100010001B3
:1002200000010000000000000000004C0037002723
:1002300000E300E300000028782778010001002196
:10024000780100BC00BB00A800AE0028002A000016
:100250000001000100010001000100010001000196
:10026000000100010001000100010001002B002F2E
:1002700000240025002600300001000100000000DD
:1002800000000000000000010029003400210022CD
:100290000023002E00000000000000E500E400E65E
:1002A00000E700AE00E10035001E001F0020003115
:1002B000000100010000000000000000000000013B
:1002C00000000000000000360038000000000000C0
:1002D0000000005000510052004F000100000027B4
:1002E000002D0000000100010001000100010001DB
:1002F00000010001000000000000000000000000FC
:1003000000000000000000000000000000000000ED
:10031000000000000036022F0224022502260230CF
:1003200002000000000000000000000000000000CB
:1003300000330234022102220223022E02000000B6
:10034000000000E500E400E600E7000000370235A9
:10035000021E021F02200231020000000000000005
:10036000000000000000000000000000000000008D
:100370000038020000000000000000500052005150
:10038000004F000100000027022D020000000000C5
:10039000000000000000000000000000000000005D
:1003A000000000000000000000000000000000004D
:1003B000000000000000000000000000000000003D
:1003C000000000000000000000000000000000002D
:1003D00000CD000000000000000000000000000050
:1003E000000000000000000000D300CF00CE00D0CD
:1003F00000D4000000000000000000000000000029
:100400000000000000D500DB00DA00D900DC0000AD
:1004100000000000000000000000000000000000DC
:10042000000000A700000000000000000000000025
:1004300000000000000000000000000000000000BC
:1004400000A600D100D200000044454255473A20A2
:1004500064697361626C65642E0A004445425547C5
:100460003A20656E61626C65642E0A000A002530D0
:100470003258006C65645F7461736B3A20004F6E94
:100480006573686F743A206163746976653A2025F4
:10049000640A00290A002575002F002575005D28D3
:1004A0000025640020002564002000256400200051
:1004B0002564007C0025303258006D6F7573656BC4
:1004C0006579205B62746E7C782079207620685D87
:1004D000287265702F61636C293A205B006261634A
:1004E0006B6C6967687420737465703A2025750AAF
:1004F000006261636B6C6967687420646973616230
:100500006C650A006261636B6C6967687420656E74
:1005100061626C650A006261636B6C696768742074
:10052000746F67676C653A2025750A006261636BBA
:100530006C696768742064656372656173653A20ED
:1005400025750A006261636B6C6967687420696E67
:100550006372656173653A2025750A00556E69639B
:100560006F646520696E707574206D6F64652073AB
:10057000657420746F3A2025750A00556E69636FA3
:10058000646520696E707574206D6F646520696E96
:10059000697420746F3A2025750A0000000000007D
:1005A0000000002A2B2800000000000000000000CE
:1005B00000000000000029000000002C1E34202153
:1005C0002224342627252E362D3738271E1F20219A
:1005D00022232425263333362E37381F04050607F9
:1005E00008090A0B0C0D0E0F101112131415161713
:1005F00018191A1B1C1D2F3130232D350405060731
:1006000008090A0B0C0D0E0F1011121314151617F2
:1006100018191A1B1C1D2F3130354C00000000002A
:1006200000000000000000000000000000000000CA
:100630000000000000000000000000000000007E3C
:100640000F00D4FFFFFFC7000000780A00253032FA
:100650005820006B6579626F6172645F7265706FBC
:1006600072743A200064656C5F6B65795F626974CF
:100670003A2063616E27742064656C3A202530321D
:10068000580A006164645F6B65795F6269743A203F
:1006900063616E2774206164643A20253032580A01
:1006A000005B735D005B575D005B535D005B525DFB
:1006B000005B445D005B435D0028034500720067FA
:1006C000006F0064006F00780020003700360020C3
:1006D00000220048006F00740044006F0078002280
:1006E000000000220341006C0070006100630061A3
:1006F0000020004B006500790062006F006100720D
:10070000006400730000000403090409025B000395
:100710000100A0FA090400000103010100092111F0
:1007200001000122400007058103080001090401BE
:1007300000010300000009211101000122B6000799
:1007400005820320000109040200020300000009E1
:100750002111010001222200070583032000010767
:1007600005030320000112010002000000084B41B4
:1007700001000100010200010631FF0974A1010915
:1007800075150026FF009520750881020976150071
:1007900026FF00952075089102C005010902A101FC
:1007A00085020901A1000509190129081500250183
:1007B0009508750181020501093009311581257FF0
:1007C00095027508810609381581257F9501750800
:1007D0008106050C0A38021581257F95017508816F
:1007E00006C0C005010980A101850319012AB700CF
:1007F000150126B700950175108100C0050C09018F
:10080000A101850419012AA002150126A002950163
:1008100075108100C005010906A1018506050719AB
:10082000E029E715002501950875018102050719E2
:100830000029EF1500250195F075018102050819C1
:10084000012905950575019102950175039101C076
:1008500005010906A101050719E029E71500250191
:100860009508750181029501750881010507190038
:1008700029FF150026FF0095067508810005081957
:10088000012905950575019102950175039101C036
:1008900011241FBECFEFDAE0DEBFCDBF04B603FEEA
:1008A00018C080911F0390912003A0912103B09163
:1008B00022038730904BA740B04B59F410921F038E
:1008C000109220031092210310922203E0E0F8E33B
:1008D000099511E0A0E0B1E0E0E8F9E502C005907B
:1008E0000D92A239B107D9F723E0A2E9B1E001C026
:1008F0001D92AF31B207E1F70E941C180C94772CBF
:100900000C940000FF93EF93E0919201F09193011A
:10091000309709F00995EF91FF910895FC018591B9
:10092000803011F0EFDFFBCF0895FF27E0E230E2E7
:1009300047FF0CC0419597FF09C0EDE260957095A7
:1009400080959095611D711D811D911D27FF02C02D
:10095000219530E350E2AA27660F771F881F991F61
:10096000AA1FA41710F0A41B63955A95A9F7AA30E3
:1009700008F0A95FA05DAF93F3956115710581053E
:10098000910541F7ED3211F4EF93F395F21718F456
:100990003F93F395FBCF8F91B5DFFA95E1F708957B
:1009A000E991F9918591803021F0853219F0AADF23
:1009B000F9CF089520E0E89455915532C1F35033B2
:1009C00011F4689455915A3348F4505390F3220F20
:1009D000022E220F220F200D250FF4CF0EF42195A9
:1009E00089919991533619F3533729F1533559F1B8
:1009F000BC0188279927E8945C3621F48991999164
:100A000068945591543639F446EF7EF077FF0DC067
:100A10008FEF9FEF0AC055374AE039F0583540E173
:100A200021F0523642E009F00895FF93EF937DDF05
:100A3000EF91FF91B7CFFF93EF93FC01819180304D
:100A4000B9F360DFFBCFFF93EF9368DFF1CFDF9364
:100A5000CF93CDB7DEB72596A3DFCF91DF91089571
:100A600080B38C7080BB81B38C7081BB0E94A10766
:100A7000089584B1807F84B985B18F6085B98AB1CA
:100A8000837F8AB98BB18C608BB93E98469A0E945D
:100A9000EA070895089508950E944B0508950E945D
:100AA00030050E943905E8EEF1E084E991E0119209
:100AB0001192DC012EE01D922150E9F70E9621E003
:100AC000E43FF207A1F70E94A50808950E943005AF
:100AD0000E943905E8EEF1E0118210821382128241
:100AE000158214821782168211861086138612864A
:100AF00008959EE0899FF0011124EC56FE4F30E0EE
:100B000020E050E040E061E070E09191992359F0DD
:100B1000DF01119791509C932F5F3F4F2E3031058D
:100B2000A1F7CA010895CB01022E02C0880F991FB8
:100B30000A94E2F7482B592BEFCFCF932EE0629F18
:100B4000B001112430E020E0A1E0B0E0C5E0AD014B
:100B5000022E02C0440F551F0A94E2F7482359237E
:100B6000452B31F0F901E60FF71FEC56FE4FC0831D
:100B70002F5F3F4F2E30310551F7CF910895FF92EF
:100B80000F931F93CF93DF930E94C607C8EED1E067
:100B9000F12C83E0F81609F46FC08F1558F081E04E
:100BA000F81609F46FC082E0F81609F468C0879A55
:100BB0008F9809C084E0F81609F45BC085E0F8124C
:100BC000F6CF809A88988F2D0E94A60780EA8A9592
:100BD000F1F78F2D0E9479058C010E942008482F83
:100BE00050E0369952C020E830E04B9951C080E087
:100BF00091E0822B932B4A994EC020E032E0822B69
:100C0000932B1B994BC020E034E0822B932B1A9935
:100C100048C020E038E0822B932B199945C020E092
:100C200030E1822B932B189942C060E070E2299149
:100C30003991862B972B842B952B82279327802302
:100C400091238901082719276F2D0E949D05FE0118
:100C50003297118300830E943005F39486E0F812E6
:100C600098CF0E944C0581E0CDB7DEB7E5E00C944B
:100C70000A2C819A8998A7CF849A8C98A4CF859AB8
:100C80008D98A1CF869A8E989ECF30E020E0ADCF90
:100C900090E080E0AECF30E020E0B1CF30E020E067
:100CA000B4CF30E020E0B7CF30E020E0BACF70E042
:100CB00060E0BDCFE82FF0E0EE0FFF1FE851FE4FE0
:100CC000808191810895B0E0A0E0E9E6F6E00C941F
:100CD000EB2B8CEB90E00E948E0488EEE82E81E0F6
:100CE000F82ED0E0C0E097EBC92E90E0D92E0EEAA6
:100CF00010E0DF93CF93DF92CF920E94270584EB21
:100D000090E00E948E04F701819191917F010E94F1
:100D10006B0A9F938F931F930F930E9427058CEA72
:100D200090E00E948E0421968DB79EB708960FB66C
:100D3000F8949EBF0FBE8DBFC630D105D1F6CDB79A
:100D4000DEB7E8E00C94072C1092B9008CE0809399
:100D5000B8000895B0E0A0E0E0EBF6E00C94E82BDA
:100D6000B82EEB010E948F236C01EE24E394F12C4A
:100D7000C431D10560F025E0E22EF12CCF3FDC0735
:100D800031F0CE0164E170E00E94772B7B0184EAB0
:100D9000A82E94E8992E1092BC00A092BC000E944C
:100DA0008F238C018091BC0087FF0DC08091B9001A
:100DB000887F8830F9F08091B900887F8031D1F048
:100DC0000FEF1FEF08C0C8010E94A723E816F9061D
:100DD00048F70EEF1FEFCF3FDC07E9F2C6010E9494
:100DE000A723C817D907B8F6C801CDB7DEB7EBE01F
:100DF0000C94042CB092BB009092BC000E948F23F4
:100E00008C018091BC0087FF0AC08091B900887F67
:100E1000883111F08034A1F610E000E0E5CFC80180
:100E20000E94A723E816F90660F7D3CF0F931F930C
:100E3000CF93DF93EB018093BB0084E88093BC00E9
:100E40000E948F238C018091BC0087FF11C02091EC
:100E5000B900287F81E090E0283211F490E080E032
:100E6000919581959109DF91CF911F910F910895EF
:100E7000CF3FDC0741F3C8010E94A723C817D90759
:100E800010F78EEF9FEFEFCF0F931F93CF93DF936A
:100E9000EC0184E88093BC000E948F238C01809138
:100EA000BC0087FF08C08091BB0090E0DF91CF912C
:100EB0001F910F910895CF3FDC0789F3C8010E946D
:100EC000A723C817D90758F78EEF9FEFEFCF84E914
:100ED0008093BC0008951092F4010E94A4062FEFA5
:100EE00083ED90E3215080409040E1F700C0000086
:100EF00080E008951F93CF93DF93182FD62F809112
:100F0000F401C0E08823C1F064E670E080E40E9450
:100F1000AA06C82F81110EC064E670E0812F0E94DE
:100F20001607C82F811106C064E670E08D2F0E945D
:100F30001607C82F0E9467078C2FDF91CF911F9152
:100F400008956FE381E00E947A07089561E070E000
:100F500001C0660F8A95EAF7609581E00E947A07E2
:100F600008956FE780E00E947A076FE782E00E94B1
:100F70007A076FE78CE00E947A076FEF81E00E94AA
:100F80007A0760EC83E10E947A07089564E670E0D6
:100F900080E40E94AA06811112C00E946707809116
:100FA000F40181110BC081E08093F4010E94B1072C
:100FB0000E94890E8BEE90E00E948E04089580912D
:100FC000F4018823D9F31092F4010E94890E83ED75
:100FD00090E0F2CF0E946B070E94C60708950F931E
:100FE0001F93CF93DF93D82F8B018091F401C0E042
:100FF000882301F164E670E080E40E94AA06C82F0D
:10100000811116C064E670E08D2F0E941607C82F6C
:1010100081110EC064E670E081E40E94AA06C82F28
:10102000811106C084E690E00E944407F8018083A5
:101030000E9467078C2FDF91CF911F910F91089528
:10104000A1E0B0E0E6E2F8E00C94F12B1982BE01D9
:101050006F5F7F4F82E10E94EF0789812196E2E076
:101060000C940D2C279A2F9A0895259A2D9808955F
:10107000269A2E980895249A2C980895279A2F98A6
:101080000895259A2D9A0895269A2E9A0895249ABD
:101090002C9A08950E9432080E9435080E94380850
:1010A0000E943B0808950E943E080E9441080E9449
:1010B00044080E94470808950E9453080E9435087A
:1010C0002FEF80E792E0215080409040E1F700C090
:1010D00000000E9438082FEF80E792E02150804006
:1010E0009040E1F700C000000E943B082FEF80E72E
:1010F00092E0215080409040E1F700C000000E9443
:1011000041082FEF80E792E0215080409040E1F7C6
:1011100000C000000E9444082FEF80E792E02150B9
:1011200080409040E1F700C000000E9447080E9404
:101130004A082FE782E490E1215080409040E1F797
:1011400000C000000E94530808950E945C080E949D
:101150004A0508958530B8F46630A8F44E3098F406
:1011600050E09EE0699F400D511D1124FA0194E565
:10117000899FE00DF11D1124EE0FFF1FEF5FFE4F61
:1011800085919491089581E090E008950E94AA08C5
:1011900008959C013A9521153F4150F5FC01EE2739
:1011A000F170BC0166277270AC01442754709C0139
:1011B0002227387094FF0EC080E1EF2B09F480E005
:1011C000672B09F08062452B09F08064232B89F09E
:1011D0008068089581E0EF2B09F480E0672B09F027
:1011E0008260452B09F08460232B19F088600895F4
:1011F00080E00895CF93DF93EB010E94C908FE01C0
:101200000995DF91CF910895CF93DF93EC01805E34
:101210009109089720F065E67EE0209711F469E2D5
:101220007CE0CE010E94FA088C2F0E941C0BDF91FB
:10123000CF910895CF93DF93EC010E94AE0BCE01C6
:10124000805E9109089720F06CE67EE0209711F40B
:1012500060E37CE0CE010E94FA08DF91CF9108950F
:101260000F931F93CF93DF938C01EB010E9404092E
:10127000209741F4C8010E941A09DF91CF911F9174
:101280000F9108958FE99FE00197F1F700C00000EA
:101290002197EECF70E060E08933910511F460E5AD
:1012A00070E00E943009089581E008950E94540979
:1012B000089581E008950E94540908950E945B09F1
:1012C000089508950E9461090895A6E0B0E0EBE654
:1012D000F9E00C94F02B49835A839E833091FA01F4
:1012E00089819A8131111AC03E81332399F02223DA
:1012F00089F00E94D80F182F682F89819A810E9447
:10130000B40F69817A81812F0E94DD162696E3E071
:101310000C940C2C0E94C60F182FF3CF0E94D80FEC
:1013200069817A81F1CFFC01262F40815181628150
:101330007381848195810E9465090895CF93DF931D
:10134000EC0161E00E949309BE010E945609DF9101
:10135000CF910895CF93DF93EC0160E00E94930951
:10136000BE010E946209DF91CF91089508950E9405
:10137000890E0E94B6092FEF84E39CE02150804043
:101380009040E1F700C0000008950E94B7090E9454
:10139000DA2308950E94B7090E94FE2308950F934F
:1013A0001F93CF93DF938C0161E00E949309EC01BE
:1013B000B8010E945E09811106C080E0DF91CF91E3
:1013C0001F910F910895B801CE010E94811C8823BE
:1013D000A1F3B801CE010E947C1D882371F3B801EE
:1013E000CE010E94F320882341F3B801CE010E9470
:1013F000211F882311F3B801CE010E9465208823A4
:10140000E1F2F8018581882369F0C330FCE7DF074A
:1014100081F160F4C130ECE7DE0769F1C0F4C11579
:10142000DC4791F0C8010E945909C8CFCB35ECE7E1
:10143000DE0739F1CC35FCE7DF0701F1CA35DC47BF
:1014400089F70E942414EECF0E94C509B6CF90916F
:10145000C702892F8E7F90FF81608093C70280FF33
:1014600005C08BE594E00E948E04A7CF89E494E048
:10147000FACF0E942C140E94CA099FCF0E941A140E
:10148000D1CF0E942814CECF0E940C2380E00E946E
:10149000B61C0E94950A08950E94431B0E94990A57
:1014A0000E9410230895829590E09C01220F331F23
:1014B000220F331F2C7C959587959595879583737F
:1014C000282B30E0C901880F991F8A7A3595279516
:1014D0002575822B0895CF93DF93D92F0E94530A4D
:1014E000C82F8D2F0E94530A9C2FDF91CF91089512
:1014F000089581E008950895CF93DF93D82F0E9437
:10150000790AC82F882319F08D2F0E947B0A8C2F0F
:10151000DF91CF9108950895CF93C82F0E94780A44
:101520008C2F0E947C0ACF91089580E00E948C0A43
:1015300008950E9441210E948C0A0895CF930E9431
:101540004121C82F8091F5018C1789F1C093F501D5
:101550000E949B236093F6017093F7018093F8013A
:101560009093F9018091C70282FF1EC080FF1CC0CA
:1015700083E794E00E948E048091C70280FF14C02C
:101580001F92CF938EE694E09F938F930E9427053E
:101590008091C7020F900F900F900F9080FF04C0B2
:1015A0008CE694E00E948E048C2F0E948C0ACF91CE
:1015B0000895ADE0B0E0EFEDFAE00C94F12B488730
:1015C00059876A877B878C879D8791110E943F137B
:1015D0001F8286E0FE013896DE01119601900D9281
:1015E0008A95E1F78D8181110DC029813A814B8166
:1015F0005C816D817E818F810E946F122D96E2E069
:101600000C940D2CCE0101960E949E098111EDCF04
:10161000F5CFFC012481213021F4808191810E9449
:101620000A100895662329F00E94A0180E947319D9
:1016300008950E94FA18FACFCF93C82F8823C9F0D3
:101640008238C9F40E94412181FD13C089E30E94C0
:10165000F4120E9478132FEF87EE93E02150804020
:101660009040E1F700C0000089E30E94FC120E9454
:101670007813CF9108958338A1F40E94412180FD11
:10168000F8CF83E50E94F4120E9478132FEF81EEC9
:1016900094E0215080409040E1F700C0000083E5D5
:1016A000E4CF8438A1F40E94412182FDE2CF87E497
:1016B0000E94F4120E9478132FEF81EE94E02150E3
:1016C00080409040E1F700C0000087E4CECF8CEF6F
:1016D0008C0F813A90F46C2F809100019091010160
:1016E0000E941022882329F08C2F0E94FC120E9455
:1016F00078138C2F0E94F412BACF80E28C0F8830BE
:1017000048F4C77081E001C0880FCA95EAF70E94CB
:101710001F13ADCFEBE5EC0FE33040F4F0E0E95BF5
:10172000FE4F808190E00E94B221A3CFE8E5EC0F4C
:10173000EB3150F4F0E0EE0FFF1FEF5EFE4F8081C3
:1017400091810E94D72195CF83E38C0F833108F0DC
:1017500090CF61E08C2F0E94120B8BCF882309F46D
:1017600056C0823879F40E94412181FF50C089E33C
:101770000E94F4120E94781389E30E94FC120E94D6
:1017800078130895833859F40E94412180FF3FC0A7
:1017900083E50E94F4120E94781383E5EECF84382B
:1017A00059F40E94412182FF32C087E40E94F41262
:1017B0000E94781387E4E1CF9CEF980F913AE8F20A
:1017C00090E2980F983050F4877091E001C0990F23
:1017D0008A95EAF7892F0E942513D1CF9BE5980FB0
:1017E000933028F490E080E00E94B221089598E5BB
:1017F000980F9B3128F490E080E00E94D721089553
:1018000093E3980F933118F460E00E94120B08954F
:101810001F93CF93DF93182FEB010E941C0B20978F
:1018200039F4812F0E94AE0BDF91CF911F91089563
:101830008FE99FE00197F1F700C000002197EFCFFB
:1018400070E060E0893311F460E570E00E94080CFC
:101850000895882321F00E941F130E947813089591
:10186000882321F00E9425130E9478130895B0E088
:10187000A0E0EDE3FCE00C94EA2B6C01D62FC72F1F
:10188000FC011581068102950F700E941513E82E48
:101890008823E9F0E12E1123D1F08C2F807F803452
:1018A00051F080E28D0F8830F8F0011104C08C2FC8
:1018B000807E8032C9F08091090382FF15C082E0EA
:1018C0000E94DB130E94151391E0E82EE926BC2E3E
:1018D000B2949FE0B922FBE0FB15B8F1EB2DF0E0EC
:1018E000E758F34D0C94C12BE12CF1CF0C2F0F7066
:1018F000C07F11F00295007F112399F0002359F069
:1019000080E28D0F883010F0D11107C0802F0E9427
:101910001F130E9478138D2F5AC0802F0E943213FC
:10192000F8CF8D2F0E94AE0B002379F080E28D0F4F
:10193000883010F0D11104C0802F0E94251303C0FD
:10194000802F0E9438130E947813EB2DE850FF0B74
:10195000349720F40E9441210E948C0AEE2089F0E5
:101960000E94111380FD0DC0F60115820E940B1319
:101970000E94120FC6010E94420E0E940B130E9489
:10198000220FCDB7DEB7E9E00C94062C2C2F2F7078
:10199000F22EC07FC03219F0F29480EFF822DD23DE
:1019A00041F0D130D1F1112309F443C00023F1F00B
:1019B000B2CF8091090382FD15C0112359F0FF2099
:1019C00029F08F2D0E941F130E94781380E00E943F
:1019D0001C0BBBCF80E00E94AE0BFF2009F4B5CFFB
:1019E0008F2DABCF112369F0011104C08F2D0E9400
:1019F000290CABCF013009F0A8CF8F2D0E945613D0
:101A0000A4CF0111A2CF8F2D0E94300C8F2D0E94E8
:101A100062138F2D0E94461398CF112321F00230BC
:101A200008F093CFE3CF011190CF8F2D0E94300C9F
:101A30008CCF0023D1F3D93349F43FEF87EE93E005
:101A4000315080409040E1F700C000008D2F0E948F
:101A5000AE0B7BCF8C2F86958695837069F0813095
:101A600009F073CF8D2F9C2F9370111102C080E06D
:101A700090E00E94D72169CF8D2F9C2F9370111178
:101A800002C080E090E00E94B2215FCF612F8D2FD5
:101A90000E94120B5ACF8C2F8370A1F5111155CFD4
:101AA0004D2F429546954770440F440F2D2F2F70B0
:101AB00030E0042E02C0220F331F0A94E2F790E0B8
:101AC00080E0D4FF09C08FE090E002C0880F991F2A
:101AD0004A95E2F780959095C695C695C370822B7E
:101AE000932BC23049F058F4C13019F00E94E20E35
:101AF0002CCF0E94D90E29CF0E94EB0E26CF0E9438
:101B0000D60E23CF8695112311F08C2F8170882358
:101B100009F41BCF4D2F429546954770440F440F53
:101B20002D2F2F7030E0042E02C0220F331F0A9495
:101B3000E2F790E080E0D4FF09C08FE090E002C0BF
:101B4000880F991F4A95E2F780959095C695C6959E
:101B5000C370822B932BC23049F058F4C13019F076
:101B60000E944D0FF2CE0E94440FEFCE0E94560FFE
:101B7000ECCE0E94FA0EE9CECF70112329F08C2F03
:101B80000E94120F8D2F33CF8D2F0E94300C8C2F7F
:101B90000E94220FDACED23F39F160F4D03FB9F083
:101BA000D13F81F0112309F445C00111B4CE8C2F2F
:101BB0008F711EC0D33FF9F0D43FA1F78091090384
:101BC00082FD23C08C2F8F71112311F311C01123BB
:101BD00039F00111BACE8C2F8F710E94340FB5CE1F
:101BE000023008F0B2CEF7CF8C2F8F711111D0CF09
:101BF0000E94120FAACE112329F08C2F8F710E9400
:101C0000060FA3CE0E94010FA0CE112349F0CF7181
:101C10008C2F0E94120F63E08C2F0E94BD1395CE73
:101C200081E00E94DB13023008F48FCE82E00E9434
:101C3000DB138BCE002359F0D93309F007CFEFEF38
:101C4000F7EE23E0E150F0402040E1F7FDCE8C2F8D
:101C50008F719ECF0F931F93CF93DF93EC01688119
:101C600079818D810E9415108C010E945F0F0E9466
:101C7000D50EB801CE010E94370CDF91CF911F9194
:101C80000F910895CF93DF93EC018C81882399F015
:101C9000CE010E94CF09811111C00E941513882323
:101CA00051F08D81882339F08091090382FF03C0B0
:101CB00082E00E94DB13DF91CF910895CE010E9454
:101CC0002A0ECE010E94AA09F6CF882321F00E9495
:101CD00032130E9478130895882321F00E9438134C
:101CE0000E947813089590E080E00E94B22190E075
:101CF00080E00E94D7210E943F130E9478130E9427
:101D0000111A0E94731908950E9404130E94730E01
:101D100008950E942F130E94840E089592959F703B
:101D2000963091F058F4925F9F70923058F4803F53
:101D300019F030F4883E30F481E008959A5FF4CFD2
:101D4000843FD1F380E00895883EB0F3813FD1F71E
:101D5000F3CFFC012481222339F0808191810E94FC
:101D60000A100E948E0E089580E00895A6E0B0E06B
:101D7000ECEBFEE00C94F12B2696E2E00C940D2C9B
:101D8000A7E0B0E0E6ECFEE00C94F12B2796E2E051
:101D90000C940D2C08950E94CA0E08950E94CB0E3B
:101DA00090932A0280932902089508950E94CE0EEE
:101DB00008952091290230912A02822B932B0E94B0
:101DC000CE0E08952091290230912A028223932376
:101DD0000E94CE0E08952091290230912A02822776
:101DE00093270E94CE0E08950E94CA0E08950E9465
:101DF000F40E08950E94F70E909328028093270214
:101E0000089590E080E00E94FA0E089521E030E00D
:101E1000A90102C0440F551F8A95E2F7CA010E942A
:101E2000FA0E089521E030E002C0220F331F8A9598
:101E3000E2F78091270290912802822B932B0E9437
:101E4000FA0E089521E030E002C0220F331F8A9578
:101E5000E2F7209530958091270290912802822305
:101E600093230E94FA0E089521E030E002C0220F71
:101E7000331F8A95E2F780912702909128028227EA
:101E800093270E94FA0E089520912702309128028C
:101E9000822B932B0E94FA0E0895209127023091F5
:101EA0002802822393230E94FA0E0895209127028C
:101EB00030912802822793270E94FA0E08950895F0
:101EC000262F277091E001C0990F2A95EAF723E0A9
:101ED000769567952A95E1F7660F771F660F771F4E
:101EE000FA01E60FF71F50E040E0682F70E08191A3
:101EF000DF0111979B01042E02C0369527950A94A5
:101F0000E2F7217021952827292328272C934F5F5A
:101F10005F4F4430510559F70895A82FA77023E06B
:101F2000969587952A95E1F7880F991F880F991F35
:101F3000FB01E80FF91F50E040E080E0219130E024
:101F40000A2E02C0369527950A94E2F721703327AE
:101F5000042E01C0220F0A94EAF7822B4F5F5F4FD5
:101F60004430510559F70895262F963070F48E307D
:101F700060F4682F70E08EE0989F600D711D112451
:101F80004BEF51E0822F0E94600F0895292F963069
:101F900068F48E3058F490E06BEF71E03EE0239FE0
:101FA000800D911D11240E948D0F089580E00895E9
:101FB000B0E0A0E0EEEDFFE00C94EA2B7C01009194
:101FC0002702109128028091290290912A02082B61
:101FD000192BCFE0D0E0CC24C394D12CBC2EC60169
:101FE0000C2E02C0880F991F0A94E2F780239123D8
:101FF000892B49F4219790F7B12C8B2DCDB7DEB703
:10200000E9E00C94062CB7018C2F0E94E916019789
:1020100089F3F3CFCF93DF93EC010E94D80FBE0179
:102020000E94E916DF91CF9108951F93CF93DF931C
:10203000EB019091FA01992339F0CB010E940A102B
:10204000DF91CF911F910895882369F0CB010E9401
:10205000D80F182F682FCE010E94B40FBE01812F18
:102060000E94E916EDCFCB010E94C60F182FF6CFC4
:102070001F93CF93DF93C0912B0217E080912C0226
:102080008C1304C0DF91CF911F910895D0E01C9F65
:10209000F0011D9FF00D1124E35DFD4F2081318182
:1020A000428153816481758186810E94C00E219690
:1020B000C770E4CF209165023091660240916702BB
:1020C000509168026091690270916A0280916B027E
:1020D0000E94C00E0895CF93DF9380916B02807FA2
:1020E00009F04DC080916A02882309F448C0E0914C
:1020F0002B0250912C02C0916602D0916502609132
:1021000067027091680247E05E17C9F18E2F90E078
:10211000E49FF0011124E35DFD4F2481222391F11E
:10212000489FF001499FF00D1124DF01A35DBD4FD1
:1021300011962C9111972C1325C02C912D1322C090
:1021400015962C91159721111DC012962D913C9139
:10215000261B370B283C3105A8F480916B028F7049
:10216000806180936B02ED5CFD4F80818F70806198
:10217000808385E692E00E94420E0E943810DF9133
:10218000CF910895FC013196E770BECF482F209182
:102190002B0290912C0257E0291302C080E0089591
:1021A00030E0529FF001539FF00D1124E35DFD4F8D
:1021B0008181681306C08081481303C08581811125
:1021C000EECF2F5F3F4F2770E7CFA4E1B0E0EBEEFB
:1021D000F0E10C94E72B8C0186E0F801DE011F96FC
:1021E00001900D928A95E1F7F8018481E58095E6EA
:1021F000A92E92E0B92E9091690291111FC08823F7
:10220000D1F0EE20A9F0C8010E94A90EF82E882373
:1022100079F087E0F801D50101900D928A95E1F7F8
:10222000C5010E94090B0E946B100E945A105FC0EA
:10223000C8010E94420EFF24F39459C0C080D1808F
:1022400082809380F0906A02209167023091680248
:10225000A401421B530BFF2009F4F9C0483C51056F
:1022600008F0A7C0882309F442C0909166028091CB
:102270006B02282F207F09F05CC09D1116C0909141
:102280006502C91212C0E1104EC08F708061809348
:102290006B020E945A1085E692E00E94420E8091E5
:1022A0006B02F8018683F12C22C0E1103CC06D2D39
:1022B0008C2D0E94C6106D2D8C2D0E94C610E82E0C
:1022C0008111F1CFCF86D88A8F8598890E940A1014
:1022D000292F22952F70243078F49F702230A8F097
:1022E0009923B9F0F8019681907F99F4FE2C8F2DF7
:1022F0006496ECE00C94032C2A5F2F70223068F077
:10230000C8010E94420EEF2CF1CF992311F08823CF
:1023100069F3805E883050F3F3CF803F38F3815FFC
:10232000833070F7E3CF80916B02816080936B0202
:10233000BACF9D1113C090916502C9120FC0E11070
:102340000DC08683C8010E94420E87E0F801A5E611
:10235000B2E001900D928A95E1F767CFC8010E9423
:10236000A90E882309F464CFEE2009F461CF80918F
:102370006B02803288F020916502309166023987C5
:1023800028879B868A86909169029C871D868E8706
:10239000CE0108960E94420E87E0F801A5E6B2E061
:1023A00001900D928A95E1F70E946B100E945A10DD
:1023B00042CF90916B02292F207FA1F4682D9A8A39
:1023C000898AA6017A899E2D0E94B60E85E692E042
:1023D0000E94420E87E0F50111928A95E9F70E946A
:1023E0005A1061CF882309F482CF809166028D1143
:1023F00010C080916502C8120CC0E1100AC096831B
:10240000C8010E94420E87E0F50111928A95E9F712
:102410006ECFC8010E94A90E882309F409CFEE20CF
:1024200009F406CF80916B02803208F4B5CF209179
:102430006502309166023A8329839C828B82909157
:1024400069029D831E828F83CE010196A3CF483CF3
:102450005105B8F5882309F4EECEFE2CEE2009F4E0
:10246000E7CE809166028D111EC080916502C81270
:102470001AC080916B0280FD0DC0982F907F51F0A3
:102480008683903F09F45ECF982F907F905F8F7086
:10249000892B57CF87E0F801A5E6B2E001900D92B5
:1024A0008A95E1F724CFC8010E94A90E811174CF4B
:1024B00080916B02816080936B02C8010E94420E82
:1024C00016CF682D9A8A898AA6017A899E2D0E9444
:1024D000B60E87E0F50111928A95E9F7A6CEAEE037
:1024E000B0E0E5E7F2E10C94F02B288739874A87C2
:1024F0005B876C877D878E87CE0108960E94E510EA
:102500008823B1F06C85662341F0288539854A859A
:102510005B857D858E850E94C00E17E080912B0221
:1025200090912C0289133DC02E96E3E00C940C2C64
:1025300087E0FE013896DE01119601900D928A9592
:10254000E1F78C85882349F320912C0230E0C90102
:1025500001968770992740912B024817190699F028
:1025600097E0929FD001939FB00D1124A35DBD4FC2
:10257000FE01319601900D929A95E1F780932C021D
:102580000E943810CACF0E94890E10922C0210921D
:102590002B0287E0E5E6F2E0DF011D928A95E9F77C
:1025A000BCCF819FC0011124835D9D4F0E94E51027
:1025B000882309F4B9CFE0912B021E9FF00111246A
:1025C000E35DFD4F208131814281538164817581BA
:1025D00086810E94C00E80912B0290E00196877048
:1025E000992780932B029ACF682F809100019091B8
:1025F00001010E94B2220895682F809100019091FC
:1026000001010E94C0220895809100019091010172
:102610000E94CE22089580918C028695869586959B
:10262000089580918C028770089590918C02977024
:1026300081E009F480E008958091B00208959091BE
:10264000B002892B8093B002089580959091B002DA
:1026500098239093B00208958093B0020895109249
:10266000B00208959091AF02892B8093AF02089534
:1026700080959091AF0298239093AF0208951092A5
:10268000AF02089508950E944213089590918D021B
:10269000292F282331F08095892380938D020E9471
:1026A0004313089508950E945213089590918E0245
:1026B000292F2823281729F0982B90938E020E9407
:1026C0005313089590918E02292F282331F080957D
:1026D000892380938E020E945313089580918E0265
:1026E000882329F010928E0280E00E9453130895EF
:1026F000CF93DF93E0910001F09101018091B0024E
:102700008083E0910001F091010180819091AF02FE
:10271000892B808390918E02992381F0E0910001B2
:10272000F09101018081892B80838091000190913B
:1027300001010E94FC2181110E946E13C0910001D1
:10274000D091010140E250E06CE672E0CE010E94BF
:10275000182C892B59F080E2FE01ACE6B2E0019022
:102760000D928A95E1F7CE010E945121DF91CF9120
:10277000089508950E94B91308959091090392FF56
:1027800011C098E0899F90011124622B60938C0204
:102790000E94120F80918C028695869586950E94E4
:1027A000BA1308950E94120F089510928C0280E0CF
:1027B0000E94BA13089590918C028095892380938A
:1027C0008C02282F277069F4891759F0909109031A
:1027D00092FF07C08695869586950E94220F0E94DB
:1027E000D5130895CF93C82F8091090382FB9927B1
:1027F00090F99C17E9F0C0FB82F98093090380915E
:102800000803909109030E944D1482E00E94DB139B
:102810008091C70280FF0CC01F92CF938EE794E097
:102820009F938F930E9427050F900F900F900F900A
:10283000CF9108958091090382FB882780F991E068
:1028400089270E94F213089581E00E94F2130895EF
:1028500080E00E94F21308956FEF7FEF90E080E038
:102860000E94612C089590E080E00E942D2C21E0D0
:10287000863E9E4F09F020E0822F089582E090E08E
:102880000E94252C089583E090E00E94252C089555
:1028900084E090E00E942D2C0895BC0184E090E03B
:1028A0000E94612C0895AB01BC018FE090E00E9472
:1028B000552C0895AB01BC0183E190E00E94552C9A
:1028C000089560E070E0CB010E945A14089560E022
:1028D00070E0CB010E9453140E9461140895A8E097
:1028E000B0E0E5E7F4E10C94F12B66EE7EEF90E0CA
:1028F00080E00E94612C60E082E090E00E94432C26
:1029000060E083E090E00E94432C10922A02109233
:10291000290260E074E184E090E00E94612C60E0B4
:1029200086E090E00E94432C6FEF87E090E00E94E9
:10293000432C40E050E0BA0188E090E00E94552C22
:1029400060E084E290E00E94432C60E087E190E048
:102950000E94432C60E08CE090E00E94432C60E0F9
:102960008DE090E00E94432C19821A821B821C8207
:102970001D821E821F82188648E050E068E170E0E8
:10298000CE0101960E94332C40E050E0BA0180E273
:1029900090E00E94552C0E9467142896E2E00C9467
:1029A0000D2C0E946F140895682F8EE090E00E9415
:1029B000432C0895A6E0B0E0E0EEF4E10C94EF2B98
:1029C0000E948F238C018091B1029091B2028017F6
:1029D000910781F019821A820E948F23682F498102
:1029E0005A81792F80E090E00E94D90A1093B202B8
:1029F0000093B1022696E4E00C940B2C0E949B23DA
:102A00006093C3027093C4028093C5029093C60280
:102A10006093BF027093C0028093C1029093C20280
:102A20000895089508950E941215089508950E942A
:102A30001615089581E0089583EB95E20E943721F1
:102A40000E9411150E94131508950E941A150895E9
:102A50000E9425150895089508950E942B150E943F
:102A60002C1508950E94F0170E948B0A0E945D1D8C
:102A70000E94CC1D08950E9486230E944F050E944B
:102A800032150E94431B0E9417150895A6E0B0E07E
:102A9000ECE4F5E10C94E52B0E941A1581110CC0B1
:102AA0000E94DA140E945C1D0E94331A0E949E0A42
:102AB0002696EEE00C94012C0E94BF0523EB822E9B
:102AC00022E0922E640110E0F601E190F1906F0196
:102AD000812F0E945A061F5F163009F44BC0E8167A
:102AE000F90691F38091C70281FD0E9463060E945E
:102AF0002815782E10E066246394812F0E945A06D0
:102B00007C01F401A190B1904F018A159B0561F100
:102B100000E0CC24C394D12CAE24BF24C5018C2169
:102B20009D21892BC1F07720B1F009831A830E947F
:102B30008F239C838B836D8221E0C7018C219D2193
:102B4000892B09F420E049815A816B817C818D8138
:102B5000922F0E94D90A0F5FCC0CDD1C0E30F1F6CB
:102B6000F4013297F182E0821F5F163031F60E9445
:102B7000FE1498CFE816F90609F0B4CF91CF1F9351
:102B8000CF93DF930E94EE16EC01C11580E5D807C4
:102B9000F0F5C11580E4D80708F09CC0C03ED1050F
:102BA00020F5CD3CD10508F082C0C83AD10578F4B3
:102BB000C53AD10508F073C0C130D10519F120978D
:102BC00009F1C430D105F0F4D0E0C0E01BC0C33C33
:102BD000D105D0F7C85AD0E0CC0FDD1FC65BDE4F61
:102BE0000990D881C02DD4640DC0C11580E2D807EA
:102BF00008F0D1C0C11581E0D80708F05AC0C83E1E
:102C0000D10510F7CE01DF91CF911F910895C03605
:102C100082E5D80718F5C03482E5D80708F06BC004
:102C2000C03282E5D80708F05FC0C11582E5D80739
:102C300008F497C02C2F2695269580E2289F9001B6
:102C400011248C2F8370C1E0D0E002C0CC0FDD1FB7
:102C50008A95E2F7C22BD32BDD68D4CFC03A82E548
:102C6000D80760F4C03882E5D80708F459C0CF719E
:102C7000D0E0DC2FCC27C46FD06AC4CFC03C82E543
:102C8000D80708F462C0C03E82E5D80708F09CCFA0
:102C9000DC2FCC27CC27DF71C06FD06AB3CFC55AE9
:102CA000D0E0C058DE4FC881D0E0D064ABCFD06553
:102CB000A9CF8D2F0E949017182FCE0199270E941F
:102CC000EE16C12FD0E0DC2FCC27CC27DF71C82B2C
:102CD000D92B98CFCE0199270E94EE16CC27DF7012
:102CE000C82BD92BD06A8ECFCF71D0E0DC2FCC2768
:102CF000C16FD06A87CF2C2F26952695277080E24A
:102D0000289F900111248C2F8370C1E0D0E002C075
:102D1000CC0FDD1F8A95E2F7C22BD32BDC6872CF74
:102D20002C2F26952695277080E2289F900111244C
:102D30008C2F8370C1E0D0E002C0CC0FDD1F8A95DC
:102D4000E2F7C22BD32BDA685DCF8C2F8F710E94F4
:102D50009017C82FD0E0DC2FCC27CC27DF71D062B2
:102D600051CF8C2F8F710E94901755E0D695C79543
:102D70005A95E1F7CF70D0E0DC2FCC27282F30E038
:102D800084FF05C044E0220F331F4A95E1F7C22BB0
:102D9000D32BD06937CF8D2F8F710E949017182FAA
:102DA000CE0199270E94EE16C12FD0E0DC2FCC2750
:102DB000CC27DF71C82BD92BD2CF462F763030F4F9
:102DC0006E3020F4672F0E94C608089590E080E0DE
:102DD00008950E94DD160E94BF150895823891055E
:102DE000B9F1B0F48133910509F47DC048F489321A
:102DF000910509F46DC08A32910509F47BC00895EC
:102E00008533910509F45FC08933910509F108956F
:102E1000833E9105D9F138F4803E910529F1823E37
:102E2000910579F10895863E9105D9F1873E910586
:102E300009F43EC0843E910541F52091090321FF2C
:102E400024C08091080384FD19C087EE90E00895A6
:102E500020910803237009F05AC02091090323FF31
:102E600014C089E290E008952091080320FD38C045
:102E70003091090330FF09C024FF43C090E080E097
:102E800008952091080322FDF7CF089520910803AB
:102E900022FD3AC03091090330FD39C024FFF5CF3F
:102EA000EDCF2091080323FFF0CF24FDE7CFCDCF56
:102EB0002091080323FD2EC03091090331FFEECF8E
:102EC00084EE90E008952091080325FFDECFC9CF5E
:102ED0002091080325FD21C02091090323FFD5CFB0
:102EE00089E390E0D2CF2091080326FFCECF8AE27B
:102EF00090E008952091080326FFC7CF81E390E07A
:102F0000089583EE90E0089582EE90E0089580EEBB
:102F100090E0089586EE90E0089585E390E00895AE
:102F20009091080392FF06C0282F28712830F9F4E9
:102F3000877F846093FF06C0282F28712831F1F421
:102F4000877E84612091090320FF06C0382F3871E5
:102F50003830D9F4877F816021FF06C0282F28717F
:102F60002831D1F4877E816194FD877E0895282FD2
:102F700024712430F9F68B7F8860DCCF282F2471F0
:102F8000243101F78B7E8861DDCF382F31713130EC
:102F900019F78E7F8860E0CF282F2171213121F72A
:102FA0008E7E8861E1CF0E942C1408950E94BF0597
:102FB0002FEF86E791E0215080409040E1F700C07C
:102FC00000000E94BF0580E00E945A0680FF04C0F6
:102FD0000E94D3170E94DA2308950E94D6170895FD
:102FE0000E943314811102C00E94D1140E943E1429
:102FF0008093C7020E9448149093090380930803AA
:103000000E94ED170E94431490E00E94D60E80911A
:103010002702909128020E94F70E08950E942F2601
:103020000E943B150E943C2608950E9441260E9462
:1030300046150E945F2608950E9428230E941526A7
:103040000E941C150E940E180E9415180E942D1532
:10305000FBCF8091D00280FF0DC06091060170E02F
:10306000660F771F6038710570F56115710569F19C
:10307000862F089581FF07C06091060184E0689F54
:10308000B0011124EFCF6091060182FD0AC080914A
:10309000CF028823A9F020910501609106018217D3
:1030A00010F088E0ECCF869FC001112433E0880F38
:1030B000991F3A95E1F7622F70E00E948B2BD2CFD7
:1030C00068E070E0D5CF8FE7089581E008958091A2
:1030D000D00280FF0CC06091030170E07595679588
:1030E000759567956115710549F1862F089581FFE2
:1030F00006C06091030170E075956795F3CF60910C
:10310000030182FD0BC09091CE029923A1F0609142
:10311000020180910301961738F0682F70E0603843
:10312000710500F38FE70895899FC001112470E0B5
:103130000E948B2BF4CF61E070E0D7CF81E008953F
:103140008D3C31F40E94291881958093D402089512
:103150008E3C19F40E942918F8CF8F3C31F40E945C
:10316000291881958093D3020895803D19F40E9417
:103170002918F8CF893D29F40E9467188093D50259
:1031800008958A3D21F40E9467188195F7CF8B3D01
:1031900031F40E94671881958093D60208958C3D82
:1031A00019F40E946718F8CF9FE2980F983070F4D6
:1031B000815D990B21E030E001C0220F8A95EAF78A
:1031C0008091D202822B8093D20208958D3D31F4FA
:1031D0008091D00281608093D00208958E3D21F4C9
:1031E0008091D0028260F7CF8F3DB9F78091D002F5
:1031F0008460F1CF4091D3028D3C59F48091D40288
:1032000087FF0DC01092D40241110BC01092CF0263
:1032100008C08E3C81F48091D40218169CF344239C
:1032200081F08091D5029091D602892B09F05AC085
:103230001092CE0208958F3C49F447FFF0CF1092D0
:10324000D3028091D4028111ECCFE0CF803D19F4FC
:103250001416ACF3E4CF9091D502893D29F41916E8
:10326000F4F61092D502DBCF8A3D19F497FFD7CF41
:10327000F8CF9091D6028B3D29F497FFD0CF1092D2
:10328000D602CDCF8C3D19F41916CCF3C8CF9FE2EE
:10329000980F983090F4815D990B21E030E0B901EE
:1032A00002C0660F771F8A95E2F7CB018095909157
:1032B000D20289238093D202B2CF8D3D31F4809126
:1032C000D0028E7F8093D002AACF8E3D21F48091D0
:1032D000D0028D7FF7CF8F3D09F0A1CF8091D00232
:1032E0008B7FF0CF08958091C70283FF7EC08AEB69
:1032F00094E00E948E048091D2021F928F9385EBFE
:1033000094E09F938F930E94270583EB94E00E94A3
:103310008E048091D302282F082E000C330B3F938C
:103320008F9380EB94E09F938F930E9427058EEA02
:1033300094E00E948E048091D402282F082E000C65
:10334000330B3F938F938BEA94E09F938F930E946C
:10335000270589EA94E00E948E048091D502282FE7
:10336000082E000C330B3F938F9386EA94E09F93D3
:103370008F930E94270584EA94E00E948E04809136
:10338000D602282F082E000C330B3F938F9381EA2F
:1033900094E09F938F930E9427058EE994E00E940A
:1033A0008E048091CF021F928F938BE994E09F93BC
:1033B0008F930E94270589E994E00E948E048091F2
:1033C000D0021F928F9386E994E09F938F930E947F
:1033D000270583E994E00E948E048DB79EB74C9632
:1033E0000FB6F8949EBF0FBE8DBF0E948F239C0125
:1033F0009091D3028091D402982B21F03093CD028A
:103400002093CC029091D5028091D602982B21F086
:103410003093CB022093CA0281ED92E00E94A42156
:10342000089586E0E1EDF2E0DF011D928A95E9F76B
:103430001092CF021092CE021092D0020895FC0199
:10344000828181110EC0838181110BC08481811121
:1034500008C091E08581811101C090E0892F8170C1
:10346000089581E0FCCFA6E0B0E0E9E3FAE10C9436
:10347000F02B86E0E1EDF2E0DE01119601900D9275
:103480008A95E1F71092D3021092D4021092D502DD
:103490001092D6028B819C81892B89F08091CC027D
:1034A0009091CD020E94A723AC019091CF02992365
:1034B000C9F1809107018417150608F440C08D8179
:1034C0009E81892B91F08091CA029091CB020E943B
:1034D000A723AC019091CE02992309F471C0809189
:1034E00004018417150608F479C0BE016F5F7F4F91
:1034F00081ED92E00E94E022811105C081ED92E011
:103500000E941F1A81110E94731986E0FE013196F4
:10351000A1EDB2E001900D928A95E1F72696E3E0E5
:103520000C940C2C2091C9028AE0289F9001112450
:103530002417350720F69F5F9093CF0202C09F3F6C
:10354000D1F71B81112359F00E9429189FEF111602
:103550000CF491E0899F802D11248093D3021C816B
:10356000112359F00E9429189FEF11160CF491E0D5
:10357000899F802D11248093D4023091D30233236C
:1035800009F49DCF2091D402222309F498CF45EB72
:103590003403C0011124992359F09093D30245EBD1
:1035A000240390011124332339F03093D40287CFC0
:1035B00081E08093D302F3CF81E08093D4027FCF68
:1035C0002091C8028AE0289F900111242417350712
:1035D00008F08BCF9F5F9093CE0202C09F3FD1F740
:1035E0001D81112359F00E9467189FEF11160CF4EA
:1035F00091E0899F802D11248093D5021E81112393
:1036000059F00E9467189FEF11160CF491E0899F02
:10361000802D11248093D6023091D502332309F4F2
:1036200064CF2091D602222309F45FCF45EB340307
:10363000C0011124992359F09093D50245EB24033E
:1036400090011124332339F03093D6024ECF81E01C
:103650008093D502F3CF81E08093D60246CF86E0F7
:1036600090E00E94252C0895682F86E090E00E944B
:10367000432C0895EAE0F3E08081847089618083BF
:103680000E94341B08950E943314811104C00E94CB
:10369000D1140E943A1B0E942F1B80930A03803290
:1036A00020F08770886180930A0390910A03892F24
:1036B000817090FF04C0892F8695869586950E941B
:1036C000B61C089580910A03982F96959695969525
:1036D000933040F49F5F990F990F990F8770892B52
:1036E00080930A0380910A03816080930A030E94F9
:1036F000341B8091C70280FF11C080910A03869518
:10370000869586951F928F9384E495E09F938F937F
:103710000E9427050F900F900F900F9080910A0341
:103720008695869586950E94B61C089580910A0319
:10373000982F987F79F0885080930A03887F91E0D2
:1037400009F490E080910A0390FB80F980930A03CA
:103750000E94341B8091C70280FF11C080910A0330
:103760008695869586951F928F938CE295E09F9320
:103770008F930E9427050F900F900F900F908091CC
:103780000A038695869586950E94B61C08958091B9
:103790000A0380FD1FC0816080930A03813019F401
:1037A00089E080930A0380910A030E94341B809170
:1037B000C70280FF08C084E095E09F938F930E942A
:1037C00027050F900F9080910A0386958695869520
:1037D0000E94B61C089580910A0380FF14C08E7F5A
:1037E00080930A030E94341B8091C70280FF08C0A7
:1037F00081EF94E09F938F930E9427050F900F9085
:1038000080E00E94B61C0895CF93C0910A03C17056
:103810008091C70280FF0CC01F92CF9386E195E094
:103820009F938F930E9427050F900F900F900F90FA
:10383000CC2321F00E94EB1BCF9108950E94C71B5F
:10384000FBCF90910A03892F8695869586958F5F89
:103850008F719770843088F5880F880F880F892BB7
:1038600080930A0380910A03887F91E009F490E035
:1038700080910A0390FB80F980930A030E94341B15
:103880008091C70280FF11C080910A0386958695BA
:1038900086951F928F938DED94E09F938F930E9456
:1038A00027050F900F900F900F9080910A03869537
:1038B000869586950E94B61C089590930A03D2CFF0
:1038C000843008F083E090910A039770282F220F2C
:1038D000220F220F922B90930A03987F21E009F484
:1038E00020E090910A0320FB90F990930A030E9434
:1038F000B61C08950E94601C80910A030E94341B2C
:1039000008959C01FB018581882349F12230F8E765
:103910003F07F9F040F42115E8E73E0769F0213050
:10392000384779F00895243098E7390779F058F04E
:103930002530384789F0089583E00E947A1C80E0A2
:10394000089580E0FACF0E94961BF9CF0E94621B77
:10395000F6CF0E94041CF3CF0E94211CF0CF81E01F
:103960000895279A2F9808952F9808958F929F92DF
:10397000AF92BF92EF92FF920F931F93CF93DF937B
:10398000C82F8430C0F5811137C080918000877FB7
:10399000809380000E94B41CA0918600B0918700A3
:1039A0002C2F30E00E94C72B23E030E040E050E0B5
:1039B0000E949F2B89019A01809186009091870037
:1039C0006CE070E00E94772B60177107D8F0C80197
:1039D00069E070E00E94772B70938D0060938C00FB
:1039E000DF91CF911F910F91FF90EF90BF90AF901B
:1039F0009F908F900895C3E08091800088608093AD
:103A00008000CACF8091860090918700E090860068
:103A1000F0908700E0918600F0918700C6E0D0E04A
:103A2000BE010E94772B060F171F211D311D480173
:103A3000590185E0880C991CAA1CBB1C8A95D1F7FA
:103A4000C701BE010E94772B9F0150E040E0260F86
:103A5000371F411D511DC501B4010E949F2B490113
:103A60005A01E0918600F0918700CA01B9010E94D5
:103A70005B2B9B01AC01DF010E94D62B9B01AC01AB
:103A8000C501B4010E945B2B2FE096958795779531
:103A900067952A95D1F7009186001091870030E054
:103AA00020E0061717072807390708F095CF60911F
:103AB00086007091870090CF08950E94B11C8AE023
:103AC0008093800089E1809381008FEF9FEF909336
:103AD0008700809386000E94431B0895FB01258187
:103AE000222341F097FF06C09F77BC0190E080E061
:103AF0000E94D91E81E008950F931F93CF93DF9307
:103B0000EC018B01FB0185818823B1F00E941C131D
:103B10008272FE01E053FC47E830F10568F4EB5790
:103B2000F34D0C94C12B811104C081E003C08111BD
:103B3000FCCF8FEF0E94E71DB801CE010E946E1DE1
:103B4000DF91CF911F910F91089580E00E94EF1DAA
:103B5000F3CF81E0FBCF82E0F9CF83E0F7CF84E0C1
:103B6000F5CF85E0F3CF90910C03923071F48A3059
:103B700050F490E009966AE070E00E948B2B875A1F
:103B80000E94200C08958650FBCF0E945A20089571
:103B900008950E94C81D08958CE090E00E94252C95
:103BA00080930C030E94C91D8091C70280FF0EC044
:103BB00080910C031F928F938BE795E09F938F93D7
:103BC0000E9427050F900F900F900F900895089571
:103BD00060910C038CE090E00E94432C0895CF93F9
:103BE000C82F80930C030E94E81D8C2F0E94C91DD2
:103BF0008091C70280FF0EC080910C031F928F93AB
:103C00008CE595E09F938F930E9427050F900F906E
:103C10000F900F90CF9108950E944E2180930B0337
:103C200090910C03913029F481FF03C089E30E9435
:103C3000200C0E941C1380930D030E942F130E94DE
:103C40003F1380910C03823021F158F48823C1F096
:103C50008130D1F08FE39CE90197F1F700C00000BB
:103C60000895843051F18530A9F78BE191E00E94ED
:103C70004A0985E290E00E944A0988E290E006C085
:103C800082EE0E941C0BE6CF88E193E00E944A0975
:103C9000E1CF80910B0380FD03C083E50E94200CDF
:103CA00082EE0E941C0B8FE39CE90197F1F700C0A4
:103CB000000087E50E94200CCDCF86EE0E94200CEC
:103CC00088E1F8CF80910C03823011F148F4882309
:103CD00081F0813091F080910D030E942C130895A2
:103CE0008430F9F08530B9F788E290E00E944A0903
:103CF000F2CF82EE0E94AE0BEECF8CE20E94200C3F
:103D000080910B0381FFE7CF89E30E94200CE3CF72
:103D100082EE0E94AE0B80910B0380FDDCCF83E529
:103D2000F4CF88E2F2CF8F929F92AF92BF92EF9240
:103D3000FF920F931F93CF93DF934B015C01D091C0
:103D40000C038CE1E82EF12C07E010E021E0D50116
:103D5000C4010E2C04C0B695A795979587950A9433
:103D6000D2F7C82FCF70222339F0D43051F4CA30A3
:103D700040F080E00E94B31D8C2F0E94B31D20E014
:103D800005C0C111F9CF04301105B4F30150110978
:103D900084E0E81AF1080F3F1007C9F6DF91CF91D0
:103DA0001F910F91FF90EF90BF90AF909F908F90D9
:103DB0000895CF92DF92EF92FF926B017C01C114C4
:103DC000D10481E1E806F104A0F5C114D10481E039
:103DD000E806F10420F080910C03823051F10E943A
:103DE0000C1EC114D10481E0E806F10438F1809181
:103DF0000C03811123C081E0E81AF108C701B60164
:103E00002AE096958795779567952A95D1F7785208
:103E10008F4F9F4F0E94931E83E0D822EE24FF24F1
:103E2000C701B60174528F4F9F4F0E94931E0E948C
:103E3000621EFF90EF90DF90CF900895C701B6010A
:103E4000F4CFCF93DF93EC01FB018581882309F444
:103E5000D2C09E0130572332310508F0B2C00E9413
:103E600048149093090380930803FE01E150F04742
:103E7000E232F10520F4E357F34D0C94C12B80910D
:103E8000080381608093080393C0809109038860D0
:103E9000809309038DC0809108038260F3CF8091E5
:103EA00008038460EFCF809108038860EBCF809196
:103EB00009038160EDCF809109038260E9CF809191
:103EC00008038061DFCF809108038062DBCF80919F
:103ED00008038064D7CF0E94890E80910803806810
:103EE000D1CF809108038C60CDCF8091090383608E
:103EF000CFCF809108038E7FC5CF80910903877F44
:103F0000C7CF809108038D7FBDCF809108038B7F41
:103F1000B9CF80910803877FB5CF809109038E7F49
:103F2000B7CF809109038D7FB3CF809108038F7E37
:103F3000A9CF809108038F7DA5CF809108038F7B47
:103F4000A1CF0E94890E809108038F779BCF80912B
:103F50000803837F97CF809109038C7F99CF80914D
:103F6000080382FB992790F921E0922790FB82F9C0
:103F700090FB83F987CF80910903982F90959170DA
:103F80008E7F892B90FB81F983CF90910803892F35
:103F90008F7B96FF806476CF0E94890E90910803F4
:103FA000892F97FB87F980586DCF81E00E94D41448
:103FB00080910803909109030E944D140E94890E7C
:103FC00080E0DF91CF91089580E0F0CF90910803D9
:103FD000892F8F7E94FF806155CF90910803892FA0
:103FE0008E7F90FF81604ECF90910903892F877F4C
:103FF00093FF88604DCF81E0E4CFB0E0A0E0E3E044
:10400000F0E20C94EC2BE82FF0E0E556FA4FD49058
:10401000282F26952695269530E0F901E55CF94F85
:104020000491877010E0082E02C0159507950A9438
:10403000E2F701701127F901E55DF94FE490F12CE9
:10404000082E02C0F594E7940A94E2F791E0E92281
:10405000FF24F901E55EF94FC491D0E002C0D59587
:10406000C7958A95E2F7C170DD270115110519F092
:1040700081EE0E941C0BE114F10419F086EE0E94FF
:104080001C0B8D2D0E94200CE114F10419F086EE1A
:104090000E94AE0B0115110519F081EE0E94AE0BC6
:1040A000CD2B19F08CE20E94200CCDB7DEB7E7E0F3
:1040B0000C94082C982F9F709A50963020F0805DB9
:1040C0000E94FD1F0895895AFBCFCF93DF93EB0128
:1040D00086319C4711F50E941C139D81992399F00C
:1040E0008A7A91E009F490E09093D702811109C097
:1040F00089E20E94F4120E94781380E0DF91CF9150
:10410000089585E3F6CF8091D702811104C089E23A
:104110000E94FC12F0CF85E3FBCF81E0EFCF0F933D
:104120001F93CF93DF93C42FD22FFC018581882367
:10413000C9F04093DA020E948F239093D9028093B2
:10414000D80280E28C0F883040F4C77081E001C053
:10415000880FCA95EAF70E94290CDF91CF911F9131
:104160000F9108951091DA02141332C08091D80291
:104170009091D9020E94A723883C910548F5C0E29E
:10418000CD0F1D17B9F080E2810F883040F4177011
:1041900081E001C0880F1A95EAF70E94300CC83000
:1041A00048F481E09D2F977001C0880F9A95EAF737
:1041B0000E94290C802F0E94200CC83070F6D77006
:1041C00081E001C0880FDA95EAF70E94300CC5CF74
:1041D00080E28C0F883008F6C77081E001C0880F3C
:1041E000CA95EAF7F2CF0F93DB0188519C478730DD
:1041F0009105A0F5FC01E155F34D0C94C12B06E2AD
:1042000021EE41EE6AE17CE7CD010E948F2080E043
:104210000F91089507E225EE45EE6BE17CE7F4CFC0
:1042200006E221EE40EE68E17CE7EECF07E225EE04
:1042300044EE69E17CE7E8CF06E221EE42EE6CE174
:104240007CE7E2CF07E225EE46EE6DE17CE7DCCFCE
:1042500008E221E045EE6EE17CE7D6CF15968C9121
:10426000882319F01092DA02D3CF81E0D1CF909356
:1042700093018093920108959093E0028093DF026E
:104280000895E091DF02F091E002309729F001906B
:10429000F081E02D0995089580E008950E94412164
:1042A0000895EF92FF920F931F93CF93DF93EC014A
:1042B000E091DF02F091E002309709F440C0809174
:1042C0001001882341F08091080387FF04C0888192
:1042D000898386E088830280F381E02DCE010995F1
:1042E0008091C70282FF2BC080FF04C083E596E067
:1042F0000E948E0410E000E08DE4E82E86E0F82EA7
:104300008091C70280FF0EC0FE01E00FF11F808187
:104310001F928F93FF92EF920E9427050F900F90AC
:104320000F900F900F5F1F4F0830110549F78091D4
:10433000C70280FF04C08BE496E00E948E04CDB7D4
:10434000DEB7E6E00C94092CE091DF02F091E00288
:10435000309739F022E0DC012C930480F581E02DC8
:1043600009950895A3E0B0E0E8EBF1E20C94F12B9D
:104370002091DD023091DE0228173907A1F09093D9
:10438000DE028093DD02E091DF02F091E0023097DF
:1043900051F023E029839B838A830680F781E02DF7
:1043A000CE01019609952396E2E00C940D2CA3E032
:1043B000B0E0EDEDF1E20C94F12B2091DB023091B5
:1043C000DC0228173907A1F09093DC028093DB020E
:1043D000E091DF02F091E002309751F024E0298370
:1043E0009B838A830680F781E02DCE010196099593
:1043F0002396E2E00C940D2CFC0132968091100182
:10440000882321F0809108039EE187FF96E080E0F9
:10441000915008F4089521912223D1F38F5FF8CFB2
:10442000662301F1209110012223F1F0209108036D
:1044300027FF1AC0462F4695469546954E3190F473
:10444000677021E030E002C0220F331F6A95E2F767
:10445000840F911DFC01828190E02823392381E0A3
:10446000232B69F480E00895FC013296089621918F
:10447000261721F0E817F907D1F7F4CF81E0089566
:104480009C01FC0132969FEF80E04191461751F06C
:104490009F3F19F4411101C0982F8F5F8630A9F713
:1044A0009F3F09F40895290F311D97FD3A95F901B1
:1044B00062830895FC01329608962191261303C069
:1044C000DF0111971C92E817F907B9F70895E62F55
:1044D000E695E695E695EE3170F4E80FF92FF11DBB
:1044E000677021E030E001C0220F6A95EAF782810F
:1044F000822B828308958091C70280FF0CC01F9297
:104500006F9383E896E09F938F930E9427050F9007
:104510000F900F900F900895E62FE695E695E6959B
:10452000EE3178F4E80FF92FF11D677021E030E0EB
:1045300001C0220F6A95EAF7209582812823228301
:1045400008958091C70280FF0CC01F926F9385E68B
:1045500096E09F938F930E9427050F900F900F90E6
:104560000F90089520911001222339F02091080323
:1045700027FF03C00E94672208950E9440220895E9
:1045800020911001222339F02091080327FF03C056
:104590000E948C2208950E945A220895FC013296AE
:1045A00080911001882351F08091080387FF06C095
:1045B0008EE1DF011D928A95E9F7089586E0F9CF33
:1045C00046E050E00E94182C21E0892B09F420E0FD
:1045D000822F089508950E94EA220895811106C04D
:1045E00081E08093E1020E94EB22089582E0F9CFFE
:1045F00083E08093E1020E94EB2208950E94EE2264
:10460000089581E08093E1020E94EB2208950E94C8
:1046100001230895089508950E940B230895089595
:104620000E940A230895CF930E9466050E94BF0549
:104630000E940F23C0E08C2F0E945A06892B31F470
:10464000CF5FC630C1F780E0CF91089581E0FCCF05
:1046500085B7806885BF85B7806885BF08951F923C
:104660001FB61F9211248F939F93AF93BF93809196
:10467000E202811113C080910E0390910F03A0916B
:104680001003B09111034196A11DB11D80930E033B
:1046900090930F03A0931003B0931103BF91AF91B8
:1046A0009F918F911F901FBE1F90189580911603A8
:1046B000843031F10E94440A1092E20288E190E0D5
:1046C00020E40FB6F894A895809360000FBE209365
:1046D000600083B7817F846083BF83B7816083BFBD
:1046E0007894889583B78E7F83BF0FB6F894A8958A
:1046F00080916000886180936000109260000FBE1E
:1047000008950E94890E0E944C0A089582E084BD9B
:1047100093E095BD9AEF97BD80936E0008952FB7F3
:10472000F89480910E0390910F03A0911003B09123
:1047300011032FBF08952FB7F89460910E03709165
:104740000F0380911003909111032FBF08959C01D6
:104750004FB7F89480910E0390910F03A09110032E
:10476000B09111034FBF821B930B089578941F9251
:104770001FB61F9211248F939F93AF93BF93809185
:104780000E0390910F03A0911003B09111030196B5
:10479000A11DB11D80930E0390930F03A0931003EE
:1047A000B0931103BF91AF919F918F911F901FBE46
:1047B0001F90189581E08093E00080E28093D800FC
:1047C0001092C9008FE19EE40197F1F700C000004C
:1047D00087E090EBDC0180931F0390932003A0936C
:1047E0002103B093220388E19CE00FB6F894A895CA
:1047F000809360000FBE90936000FFCF88E19CE043
:104800000FB6F894A895809360000FBE9093600057
:10481000FFCF8091060308959B01BA019091160382
:104820009430E9F48F708093E9009FEF8091E80065
:10483000915085FD06C085ED8A95F1F70000911134
:10484000F5CF8091E80085FF0AC050E040E0C90143
:104850000E94D5268091E8008E778093E800089525
:1048600043E050E0BC0182E00E940C24089546E041
:1048700050E0BC0182E00E940C240895CF93DF93A6
:10488000EC0180911001811111C048E050E0BE019F
:1048900081E00E940C2480E2FE01A6EEB2E00190CD
:1048A0000D928A95E1F7DF91CF91089580910803E9
:1048B00087FF05C040E282E050E0BE01EACF48E059
:1048C00081E0FACF85EB96E00E948E04809115037B
:1048D000811109C00E9465280E94C2288091E200CF
:1048E00084608093E200089581EB96E00E948E043C
:1048F0001092150308958DEA96E00E948E040E949E
:104900000123089589EA96E00E948E0460911203C3
:1049100081E0611101C080E00E94F822089585EADB
:1049200096E00E948E049091160381E0943009F085
:1049300080E0609112030E94FE2208952091E4021B
:104940002F5F822F62E30E946B2B992319F0209333
:10495000E40208951092E4028091E5028823F1F0C8
:10496000809116038430C1F49091E9009F702091EA
:10497000EC00822F817020FD80E8892B93E09093DA
:10498000E9009091EB0090FF04C09091EE0097FD3C
:1049900008C08F708093E9001092E502089510928C
:1049A000F1009091E80095FDFACF9091E80090FF1A
:1049B000F0CF9091E8009E779093E800EACF42E034
:1049C00061EC81E00E94E12742E261EC82E00E941A
:1049D000E12742E261EC83E00E94E1279091160317
:1049E00081E0943009F080E0609112030E94EE2291
:1049F000089580911803833009F461C030F4813048
:104A0000D1F1823009F49EC008958A3009F48AC039
:104A10008B3009F46FC0893009F050C080911703C2
:104A2000813209F04BC080911B0390911C030297C7
:104A300008F044C08091E800877F8093E80080916F
:104A4000E80082FF37C09091F3008091F200029756
:104A500031F48091F100813011F0863021F48091A1
:104A6000F100809306038091E8008B778093E80043
:104A70000E94152823C080911703813AF9F4809190
:104A8000E800877F8093E80080911B0390911C03CE
:104A9000892B61F460E286EE92E070E00E942427A8
:104AA0008091E8008B778093E800089560E090E0C3
:104AB00080E0F3CF809116038111C1CF08958091DA
:104AC0001703813AD9F780911B0390911C03892B1E
:104AD000A9F78091E800877F8093E8008091E80043
:104AE00080FFFCCF809110018093F1008091E8005D
:104AF0008E77BCCF80911703813201F780911B0321
:104B000090911C03892BD1F68091E800877F8093D8
:104B1000E8000E94152880911903809310010E94DB
:104B2000890E089580911703813241F68091E80043
:104B3000877F8093E8000E94152880911A03809354
:104B40000703089580911703813A09F0B7CF809148
:104B5000E800877F8093E8008091E80080FFFCCF29
:104B600080910703C1CF9FB7F8941092E5029FBFD1
:104B700090911603943009F048C02091E9002F70FD
:104B80003091EC00932F917030FD90E8922B23E050
:104B90002093E9002091EB0020FF34C02091EE002B
:104BA00027FF30C02091E302222321F02091E8006A
:104BB00025FF28C01092E30226E03091E80035FF7F
:104BC00014C08093F1008091E80085FD27C080919A
:104BD000E80080FFFCCF8091E8008E778093E800AA
:104BE0009F709093E90080E008953091160334306F
:104BF00049F43091EB0035FD05C0215041F481E0CE
:104C00008093E3029F709093E9008FEF0895EFE99E
:104C1000FFE03197F1F700C00000CFCF8FB7F894D5
:104C200021E02093E5028FBFDBCF84B7877F84BF6D
:104C30000FB6F894A8958091600088618093600019
:104C4000109260000FBE80E890E00FB6F894809359
:104C50006100909361000FBE0E94072308950E9497
:104C600065280E94C228E2EEF0E0808184608083A3
:104C700078940E94402B089588E091E00E943C21A6
:104C8000089580911603853051F481EA96E00E94E0
:104C90008E0480911603853019F00E9481230895B7
:104CA0000E94562380911403882399F30E941323B2
:104CB000882379F30E94BF260E94890EEACF0895C7
:104CC0009A0140911D0350911E030E946826089589
:104CD000492F55274330510521F168F441305105E2
:104CE00009F443C04230510509F444C090E080E02B
:104CF00050E040E026C04132510551F142325105A9
:104D0000A9F76330710590F7FB01EE0FFF1FEA571B
:104D1000FE4F408151816D577E4FFB01808190E0B5
:104D200010C099278130910581F0009729F00297F2
:104D3000E9F6E9EBF6E002C0E7E0F7E0849190E005
:104D4000AF01F901518340830895E3EEF6E0F6CF19
:104D50006330710558F6660F771FFB01E457FE4F6D
:104D60004081518189E090E0ECCF82E190E046E61D
:104D700057E0E7CF8BE590E04BE057E0E2CF80E1F2
:104D800089BD82E189BD09B400FEFDCF8091D800C4
:104D90008F7D8093D8008091E00082608093E00056
:104DA0008091E00081FDFCCF0895AF92BF92CF9239
:104DB000DF92FF920F931F93CF93DF936C01EB0170
:104DC0008A010E943428F82E811123C00115110593
:104DD00039F0F80180819181C81BD90BC80ED91E0A
:104DE000B12CA12C2097A9F08091E80085FD22C06C
:104DF0008091E8008E778093E80001151105A1F0FD
:104E0000F80180819181A80EB91EB182A08285E04F
:104E1000F82E8F2DDF91CF911F910F91FF90DF9092
:104E2000CF90BF90AF9008950E9434288823D1F28C
:104E3000F82EEFCFF60181916F018093F100219759
:104E4000FFEFAF1ABF0ACECFFC0180911D039091F6
:104E50001E0386179707A0F06115710529F490913C
:104E6000E8009E779093E80090E06115710551F499
:104E7000911108C08091E80082FF34C080E008955D
:104E8000BC01F2CF809116038823C1F18530C1F1B6
:104E90008091E80083FD30C08091E80082FDEACF78
:104EA0008091E80080FFE1CF8091F3002091F20033
:104EB000382F6115710519F02830310558F091E04F
:104EC0002830310509F090E02091E8002E772093FA
:104ED000E800CBCF81918093F100615071092F5F81
:104EE0003F4FE7CF80911603882341F0853041F092
:104EF0008091E80083FFBECF81E0089582E00895AD
:104F000083E00895FC0180911D0390911E03861794
:104F10009707A0F06115710529F48091E8008E775C
:104F20008093E80090E06115710551F4911108C07B
:104F30008091E80082FF35C080E00895BC01F2CF87
:104F4000809116038823C9F18530C9F18091E8006A
:104F500083FD31C08091E80082FDEACF8091E800B6
:104F600080FFE1CF8091F3002091F200382F61158E
:104F7000710519F02830310558F091E028303105DD
:104F800009F090E08091E8008E778093E800CBCF25
:104F900084918093F1003196615071092F5F3F4FEA
:104FA000E6CF80911603882341F0853041F080914F
:104FB000E80083FFBDCF81E0089582E0089583E09B
:104FC0000895982F973028F08F708093E90081E042
:104FD00008959093E900242F762F50E0981731F030
:104FE0007091EC002091ED005091F00021FD02C085
:104FF0009F5FE8CF3091EB003E7F3093EB00309124
:10500000ED003D7F3093ED003091EB003160309347
:10501000EB007093EC002093ED005093F000209192
:10502000EE0027FDE5CF80E008958091170387FF0C
:1050300013C08091E80082FF06C08091E8008B7762
:105040008093E80004C0809116038111F2CF089587
:10505000809116038823D9F38091E80080FFF8CF70
:105060008091E8008E77ECCF2091E4003091E5004C
:1050700095E6A9012091EC00822F817020FF06C0E7
:105080008091E80080FF06C080E008952091E8004C
:1050900022FD1AC080911603882389F0853089F09B
:1050A0008091EB0085FD0FC02091E4003091E50078
:1050B00042175307F9F29150E1F684E0089582E037
:1050C000089583E0089581E008950E94D4280E9405
:1050D000DC28E0EEF0E0808181608083E8EDF0E0A4
:1050E00080818F77808319BCA7EDB0E08C918E7F93
:1050F0008C9380818F7E80831092150308950F9387
:105100001F93CF93DF930E94D4280E94DC28C8ED20
:10511000D0E088818F7788838881806888838881C0
:105120008F7D888319BC109216031092120310927F
:1051300014031092130300EE10E0F80180818B7FBE
:10514000808388818160888342E060E080E00E9403
:10515000E127E1EEF0E080818E7F8083E2EEF0E0F7
:10516000808181608083808188608083F801808174
:105170008E7F8083888180618883DF91CF911F91AA
:105180000F910895E8EDF0E080818F7E8083E7ED58
:10519000F0E080818160808384E082BF81E0809341
:1051A00015030E947F280895E8EDF0E080818E7F4E
:1051B00080831092E20008951092DA001092E100CC
:1051C00008951F920F920FB60F9211242F933F93C1
:1051D0004F935F936F937F938F939F93AF93BF93FF
:1051E000EF93FF938091E10082FF0BC08091E2007A
:1051F00082FF07C08091E1008B7F8093E1000E94D5
:105200009E248091DA0080FF19C08091D80080FF31
:1052100015C08091DA008E7F8093DA008091D900EA
:1052200080FF96C080E189BD82E189BD09B400FE9E
:10523000FDCF81E0809316030E9462248091E100FB
:1052400080FF19C08091E20080FF15C08091E200CC
:105250008E7F8093E2008091E20080618093E20083
:105260008091D80080628093D80019BC85E080933B
:1052700016030E9482248091E10084FF2BC080915C
:10528000E20084FF27C080E189BD82E189BD89B544
:10529000982F917080FFFBCF8091D8008F7D8093F5
:1052A000D8008091E1008F7E8093E1008091E20040
:1052B0008F7E8093E2008091E20081608093E20023
:1052C00080911203882309F449C084E08093160377
:1052D0000E948F248091E10083FF29C08091E20029
:1052E00083FF25C08091E100877F8093E10082E009
:1052F00080931603109212038091E1008E7F8093B9
:10530000E1008091E2008E7F8093E2008091E200D4
:1053100080618093E20042E060E080E00E94E1274B
:105320008091F00088608093F0000E947B24FF91C0
:10533000EF91BF91AF919F918F917F916F915F910D
:105340004F913F912F910F900FBE0F901F90189586
:1053500019BC109216030E94742470CF8091E30050
:1053600087FD93E090931603B3CF1F920F920FB671
:105370000F9211242F933F934F935F936F937F93DB
:105380008F939F93AF93BF93CF93DF93EF93FF934D
:10539000D091E900DF708091EC00C82FC17080FDD2
:1053A000C0E81092E9008091F000877F8093F000C0
:1053B00078940E94F9291092E9008091F0008860A9
:1053C0008093F000CD2BCF70C093E900FF91EF9157
:1053D000DF91CF91BF91AF919F918F917F916F910D
:1053E0005F914F913F912F910F900FBE0F901F90A3
:1053F0001895AAE2B0E0EFEFF9E20C94F02B87E108
:1054000093E02091F100FC012193CF01F3E08F3173
:105410009F07B9F70E94F9248091E80083FF1EC11D
:1054200080911703909118039A3008F017C1E92F63
:10543000F0E0EA54F34D0C94C12B803899F0823897
:1054400009F00CC180911B038F70873008F006C1F2
:105450008093E9008091EB0085FB882780F910920A
:10546000E90006C0809113039091140391118260AA
:105470009091E800977F9093E8008093F10010925C
:10548000F1008091E8008E77E5C0882309F4D3C04D
:10549000823009F0E3C0809119038111D6C0809158
:1054A0001B038F702FEF280F263008F0D7C0809392
:1054B000E9002091EB0020FFC8C0933031F48091C7
:1054C000EB0080628093EB00C0C09091EB00906194
:1054D0009093EB0021E030E001C0220F8A95EAF7BB
:1054E0002093EA001092EA008091EB008860EACFF6
:1054F0008111B4C0109119031F778091E300807867
:10550000812B8093E3008091E800877F8093E800FF
:105510000E9415288091E80080FFFCCF8091E30075
:1055200080688093E30082E0111183E0809316038A
:1055300095C08058823008F091C0809119039091F5
:105540001A038C3D23E09207A1F583E08A838AE267
:1055500089834FB7F894DE01139620E03EE051E2D4
:10556000E32FF0E050935700E49120FF03C0E29551
:10557000EF703F5FEF708E2F90E0EA30C0F0C7967B
:105580008D939D932F5F243159F74FBF8091E80091
:10559000877F8093E8006AE270E0CE0101960E9466
:1055A00024278091E8008B778093E80057C0C0964D
:1055B000E7CF60911B0370911C03AE014F5F5F4FFB
:1055C0000E946026BC01892B09F448C09091E80034
:1055D000977F9093E80089819A810E948227E1CF8A
:1055E0008038E1F58091E800877F8093E800809122
:1055F00012038093F10045CF811130C090911903BF
:10560000923060F58091E800877F8093E800909366
:1056100012030E94152880911203882311F084E060
:1056200005C08091E30087FDFACF81E080931603E7
:105630000E94DF2413C080911903813079F481E046
:10564000933009F080E0809314031092E900809178
:10565000E800877F8093E8000E9415288091E80089
:1056600083FF0AC08091E800877F8093E8008091E3
:10567000EB0080628093EB00AA96E3E00C940C2C84
:10568000CF93809116038823A1F0C091E900CF70D9
:105690009091EC00892F817090FD80E8C82B1092CA
:1056A000E9008091E80083FD0E94F929CF70C09342
:1056B000E900CF910895DB018F939F930E94D62B31
:1056C000BF91AF91A29F800D911DA39F900DB29F9E
:1056D000900D11240895991B79E004C0991F961725
:1056E00008F0961B881F7A95C9F780950895AA1B24
:1056F000BB1B51E107C0AA1FBB1FA617B70710F0BD
:10570000A61BB70B881F991F5A95A9F780959095EE
:10571000BC01CD01089597FB072E16F4009407D025
:1057200077FD09D00E94772B07FC05D03EF49095B9
:1057300081959F4F0895709561957F4F0895A1E2DF
:105740001A2EAA1BBB1BFD010DC0AA1FBB1FEE1FFB
:10575000FF1FA217B307E407F50720F0A21BB30B46
:10576000E40BF50B661F771F881F991F1A9469F7C2
:1057700060957095809590959B01AC01BD01CF011E
:105780000895EE0FFF1F0590F491E02D0994A29F5C
:10579000B001B39FC001A39F700D811D1124911D05
:1057A000B29F700D811D1124911D08950E94C72B79
:1057B000A59F900DB49F900DA49F800D911D112465
:1057C00008952F923F924F925F926F927F928F92A5
:1057D0009F92AF92BF92CF92DF92EF92FF920F9380
:1057E0001F93CF93DF93CDB7DEB7CA1BDB0B0FB68A
:1057F000F894DEBF0FBECDBF09942A883988488847
:105800005F846E847D848C849B84AA84B984C884DC
:10581000DF80EE80FD800C811B81AA81B981CE0FD3
:10582000D11D0FB6F894DEBF0FBECDBFED010895B8
:10583000FB01DC0104C08D910190801921F44150DD
:105840005040C8F7881B990B0895F999FECF92BD77
:1058500081BDF89A992780B50895A8E1B0E042E0AB
:1058600050E00C94692CDC01A40FB51F415050404E
:1058700048F0CB01840F951F2E910E94442C41507B
:105880005040D0F70895262FF999FECF92BD81BDE3
:10589000F89A019700B4021639F01FBA20BD0FB66E
:1058A000F894FA9AF99A0FBE08950396272F0E944A
:1058B000442C0E94432C252F0E94442C242F0C940E
:1058C000442C0196272F0E94442C0C94432CDC017D
:1058D000CB01FC01F999FECF06C0F2BDE1BDF89AFB
:1058E000319600B40D9241505040B8F70895F894A5
:1058F000FFCF760C760CC60CC60C2A0D460DA50CF7
:10590000A50C4B0DBC0DCB0DCB0D931D971DA51DEF
:10591000A91DAB1DAD1DAF1DB11D791FED1F811F51
:105920004B1F4F1F851F531F891F951F5F1FE61FAA
:10593000631F991F671F9D1FC51F6B1FA11FCC1FD2
:10594000711FA71FAF1F571F8D1F5B1F911F751F53
:10595000AB1FBB1FD51FE41F451F7D1FF41F102168
:105960001621FF200A211C21222128211D2A452A37
:105970002E2B452A2E2B782A992A2E2BF02AFC2A08
:105980008F022808503C071409243E243724302471
:1059900001E200E900EA00B500B600B700CD0083DF
:1059A00001CC008A019201940121022302240225E4
:1059B00002260227022A02B300B4006F0070009F83
:1059C00001CB019F02A002818283E200E900EA008C
:1059D000B500B600B700CD008301CC008A0192016A
:1059E00094012102230224022502260227022A0210
:1059F000B300B4006F0070009F01CB019F02A002B2
:105A000081828340B62250089A0778071D0736071F
:025A10004F073E
:00000001FF
